{
  "_format": "hh-sol-artifact-1",
  "contractName": "MonsteraManager",
  "sourceName": "contracts/MonsteraManager.sol",
  "abi": [
    {
      "inputs": [],
      "stateMutability": "nonpayable",
      "type": "constructor"
    },
    {
      "inputs": [],
      "name": "AccessControlBadConfirmation",
      "type": "error"
    },
    {
      "inputs": [
        {
          "internalType": "address",
          "name": "account",
          "type": "address"
        },
        {
          "internalType": "bytes32",
          "name": "neededRole",
          "type": "bytes32"
        }
      ],
      "name": "AccessControlUnauthorizedAccount",
      "type": "error"
    },
    {
      "inputs": [
        {
          "internalType": "address",
          "name": "owner",
          "type": "address"
        }
      ],
      "name": "OwnableInvalidOwner",
      "type": "error"
    },
    {
      "inputs": [
        {
          "internalType": "address",
          "name": "account",
          "type": "address"
        }
      ],
      "name": "OwnableUnauthorizedAccount",
      "type": "error"
    },
    {
      "inputs": [
        {
          "internalType": "address",
          "name": "token",
          "type": "address"
        }
      ],
      "name": "SafeERC20FailedOperation",
      "type": "error"
    },
    {
      "anonymous": false,
      "inputs": [
        {
          "indexed": true,
          "internalType": "address",
          "name": "previousOwner",
          "type": "address"
        },
        {
          "indexed": true,
          "internalType": "address",
          "name": "newOwner",
          "type": "address"
        }
      ],
      "name": "OwnershipTransferred",
      "type": "event"
    },
    {
      "anonymous": false,
      "inputs": [
        {
          "indexed": true,
          "internalType": "bytes32",
          "name": "role",
          "type": "bytes32"
        },
        {
          "indexed": true,
          "internalType": "bytes32",
          "name": "previousAdminRole",
          "type": "bytes32"
        },
        {
          "indexed": true,
          "internalType": "bytes32",
          "name": "newAdminRole",
          "type": "bytes32"
        }
      ],
      "name": "RoleAdminChanged",
      "type": "event"
    },
    {
      "anonymous": false,
      "inputs": [
        {
          "indexed": true,
          "internalType": "bytes32",
          "name": "role",
          "type": "bytes32"
        },
        {
          "indexed": true,
          "internalType": "address",
          "name": "account",
          "type": "address"
        },
        {
          "indexed": true,
          "internalType": "address",
          "name": "sender",
          "type": "address"
        }
      ],
      "name": "RoleGranted",
      "type": "event"
    },
    {
      "anonymous": false,
      "inputs": [
        {
          "indexed": true,
          "internalType": "bytes32",
          "name": "role",
          "type": "bytes32"
        },
        {
          "indexed": true,
          "internalType": "address",
          "name": "account",
          "type": "address"
        },
        {
          "indexed": true,
          "internalType": "address",
          "name": "sender",
          "type": "address"
        }
      ],
      "name": "RoleRevoked",
      "type": "event"
    },
    {
      "inputs": [],
      "name": "DEFAULT_ADMIN_ROLE",
      "outputs": [
        {
          "internalType": "bytes32",
          "name": "",
          "type": "bytes32"
        }
      ],
      "stateMutability": "view",
      "type": "function"
    },
    {
      "inputs": [],
      "name": "WITHDRAWER_ROLE",
      "outputs": [
        {
          "internalType": "bytes32",
          "name": "",
          "type": "bytes32"
        }
      ],
      "stateMutability": "view",
      "type": "function"
    },
    {
      "inputs": [
        {
          "internalType": "uint256",
          "name": "_amount",
          "type": "uint256"
        }
      ],
      "name": "deposit",
      "outputs": [],
      "stateMutability": "nonpayable",
      "type": "function"
    },
    {
      "inputs": [
        {
          "internalType": "bytes32",
          "name": "role",
          "type": "bytes32"
        }
      ],
      "name": "getRoleAdmin",
      "outputs": [
        {
          "internalType": "bytes32",
          "name": "",
          "type": "bytes32"
        }
      ],
      "stateMutability": "view",
      "type": "function"
    },
    {
      "inputs": [
        {
          "internalType": "bytes32",
          "name": "role",
          "type": "bytes32"
        },
        {
          "internalType": "uint256",
          "name": "index",
          "type": "uint256"
        }
      ],
      "name": "getRoleMember",
      "outputs": [
        {
          "internalType": "address",
          "name": "",
          "type": "address"
        }
      ],
      "stateMutability": "view",
      "type": "function"
    },
    {
      "inputs": [
        {
          "internalType": "bytes32",
          "name": "role",
          "type": "bytes32"
        }
      ],
      "name": "getRoleMemberCount",
      "outputs": [
        {
          "internalType": "uint256",
          "name": "",
          "type": "uint256"
        }
      ],
      "stateMutability": "view",
      "type": "function"
    },
    {
      "inputs": [
        {
          "internalType": "bytes32",
          "name": "role",
          "type": "bytes32"
        }
      ],
      "name": "getRoleMembers",
      "outputs": [
        {
          "internalType": "address[]",
          "name": "",
          "type": "address[]"
        }
      ],
      "stateMutability": "view",
      "type": "function"
    },
    {
      "inputs": [
        {
          "internalType": "bytes32",
          "name": "role",
          "type": "bytes32"
        },
        {
          "internalType": "address",
          "name": "account",
          "type": "address"
        }
      ],
      "name": "grantRole",
      "outputs": [],
      "stateMutability": "nonpayable",
      "type": "function"
    },
    {
      "inputs": [
        {
          "internalType": "bytes32",
          "name": "role",
          "type": "bytes32"
        },
        {
          "internalType": "address",
          "name": "account",
          "type": "address"
        }
      ],
      "name": "hasRole",
      "outputs": [
        {
          "internalType": "bool",
          "name": "",
          "type": "bool"
        }
      ],
      "stateMutability": "view",
      "type": "function"
    },
    {
      "inputs": [],
      "name": "maxWithdrawAmount",
      "outputs": [
        {
          "internalType": "uint256",
          "name": "",
          "type": "uint256"
        }
      ],
      "stateMutability": "view",
      "type": "function"
    },
    {
      "inputs": [],
      "name": "owner",
      "outputs": [
        {
          "internalType": "address",
          "name": "",
          "type": "address"
        }
      ],
      "stateMutability": "view",
      "type": "function"
    },
    {
      "inputs": [],
      "name": "renounceOwnership",
      "outputs": [],
      "stateMutability": "nonpayable",
      "type": "function"
    },
    {
      "inputs": [
        {
          "internalType": "bytes32",
          "name": "role",
          "type": "bytes32"
        },
        {
          "internalType": "address",
          "name": "callerConfirmation",
          "type": "address"
        }
      ],
      "name": "renounceRole",
      "outputs": [],
      "stateMutability": "nonpayable",
      "type": "function"
    },
    {
      "inputs": [
        {
          "internalType": "bytes32",
          "name": "role",
          "type": "bytes32"
        },
        {
          "internalType": "address",
          "name": "account",
          "type": "address"
        }
      ],
      "name": "revokeRole",
      "outputs": [],
      "stateMutability": "nonpayable",
      "type": "function"
    },
    {
      "inputs": [
        {
          "internalType": "uint256",
          "name": "_maxAmount",
          "type": "uint256"
        }
      ],
      "name": "setMaxWithdrawAmount",
      "outputs": [],
      "stateMutability": "nonpayable",
      "type": "function"
    },
    {
      "inputs": [
        {
          "internalType": "contract IERC20",
          "name": "_token",
          "type": "address"
        }
      ],
      "name": "setToken",
      "outputs": [],
      "stateMutability": "nonpayable",
      "type": "function"
    },
    {
      "inputs": [
        {
          "internalType": "bool",
          "name": "_isEnable",
          "type": "bool"
        }
      ],
      "name": "setWithDrawEnable",
      "outputs": [],
      "stateMutability": "nonpayable",
      "type": "function"
    },
    {
      "inputs": [
        {
          "internalType": "bytes4",
          "name": "interfaceId",
          "type": "bytes4"
        }
      ],
      "name": "supportsInterface",
      "outputs": [
        {
          "internalType": "bool",
          "name": "",
          "type": "bool"
        }
      ],
      "stateMutability": "view",
      "type": "function"
    },
    {
      "inputs": [
        {
          "internalType": "address",
          "name": "newOwner",
          "type": "address"
        }
      ],
      "name": "transferOwnership",
      "outputs": [],
      "stateMutability": "nonpayable",
      "type": "function"
    },
    {
      "inputs": [
        {
          "internalType": "uint256",
          "name": "_amount",
          "type": "uint256"
        },
        {
          "internalType": "address",
          "name": "_to",
          "type": "address"
        }
      ],
      "name": "withdraw",
      "outputs": [],
      "stateMutability": "nonpayable",
      "type": "function"
    },
    {
      "inputs": [],
      "name": "withdrawEnable",
      "outputs": [
        {
          "internalType": "bool",
          "name": "",
          "type": "bool"
        }
      ],
      "stateMutability": "view",
      "type": "function"
    }
  ],
  "bytecode": "0x608060405234801561001057600080fd5b5033600073ffffffffffffffffffffffffffffffffffffffff168173ffffffffffffffffffffffffffffffffffffffff16036100845760006040517f1e4fbdf700000000000000000000000000000000000000000000000000000000815260040161007b919061043d565b60405180910390fd5b610093816100ad60201b60201c565b506100a76000801b3361017160201b60201c565b50610458565b60008060009054906101000a900473ffffffffffffffffffffffffffffffffffffffff169050816000806101000a81548173ffffffffffffffffffffffffffffffffffffffff021916908373ffffffffffffffffffffffffffffffffffffffff1602179055508173ffffffffffffffffffffffffffffffffffffffff168173ffffffffffffffffffffffffffffffffffffffff167f8be0079c531659141344cd1fd0a4f28419497f9722a3daafe3b4186f6b6457e060405160405180910390a35050565b60008061018484846101bd60201b60201c565b905080156101b3576101b183600260008781526020019081526020016000206102ba60201b90919060201c565b505b8091505092915050565b60006101cf83836102f060201b60201c565b6102af57600180600085815260200190815260200160002060000160008473ffffffffffffffffffffffffffffffffffffffff1673ffffffffffffffffffffffffffffffffffffffff16815260200190815260200160002060006101000a81548160ff02191690831515021790555061024c61035b60201b60201c565b73ffffffffffffffffffffffffffffffffffffffff168273ffffffffffffffffffffffffffffffffffffffff16847f2f8788117e7eff1d82e926ec794901d17c78024a50270940304540a733656f0d60405160405180910390a4600190506102b4565b600090505b92915050565b60006102e8836000018373ffffffffffffffffffffffffffffffffffffffff1660001b61036360201b60201c565b905092915050565b60006001600084815260200190815260200160002060000160008373ffffffffffffffffffffffffffffffffffffffff1673ffffffffffffffffffffffffffffffffffffffff16815260200190815260200160002060009054906101000a900460ff16905092915050565b600033905090565b600061037583836103d960201b60201c565b6103ce5782600001829080600181540180825580915050600190039060005260206000200160009091909190915055826000018054905083600101600084815260200190815260200160002081905550600190506103d3565b600090505b92915050565b600080836001016000848152602001908152602001600020541415905092915050565b600073ffffffffffffffffffffffffffffffffffffffff82169050919050565b6000610427826103fc565b9050919050565b6104378161041c565b82525050565b6000602082019050610452600083018461042e565b92915050565b611c81806104676000396000f3fe608060405234801561001057600080fd5b50600436106101365760003560e01c80639010d07c116100b8578063b6b55f251161007c578063b6b55f2514610339578063ca15c87314610355578063d547741f14610385578063df74e028146103a1578063f2fde38b146103bd578063f516440c146103d957610136565b80639010d07c1461026d57806391d148541461029d578063a217fddf146102cd578063a3246ad3146102eb578063b5b68afe1461031b57610136565b806336568abe116100ff57806336568abe146101ef578063415b3bc41461020b578063715018a61461022757806385f438c1146102315780638da5cb5b1461024f57610136565b8062f714ce1461013b57806301ffc9a714610157578063144fa6d714610187578063248a9ca3146101a35780632f2ff15d146101d3575b600080fd5b61015560048036038101906101509190611462565b6103f7565b005b610171600480360381019061016c91906114fa565b6105d6565b60405161017e9190611542565b60405180910390f35b6101a1600480360381019061019c919061159b565b610650565b005b6101bd60048036038101906101b891906115fe565b61069c565b6040516101ca919061163a565b60405180910390f35b6101ed60048036038101906101e89190611655565b6106bc565b005b61020960048036038101906102049190611655565b6106de565b005b610225600480360381019061022091906116c1565b610759565b005b61022f61077e565b005b610239610792565b604051610246919061163a565b60405180910390f35b6102576107b6565b60405161026491906116fd565b60405180910390f35b61028760048036038101906102829190611718565b6107df565b60405161029491906116fd565b60405180910390f35b6102b760048036038101906102b29190611655565b61080e565b6040516102c49190611542565b60405180910390f35b6102d5610879565b6040516102e2919061163a565b60405180910390f35b610305600480360381019061030091906115fe565b610880565b6040516103129190611816565b60405180910390f35b6103236108a4565b6040516103309190611542565b60405180910390f35b610353600480360381019061034e9190611838565b6108b7565b005b61036f600480360381019061036a91906115fe565b6109c6565b60405161037c9190611874565b60405180910390f35b61039f600480360381019061039a9190611655565b6109ea565b005b6103bb60048036038101906103b69190611838565b610a0c565b005b6103d760048036038101906103d2919061188f565b610a1e565b005b6103e1610aa4565b6040516103ee9190611874565b60405180910390f35b3373ffffffffffffffffffffffffffffffffffffffff166104166107b6565b73ffffffffffffffffffffffffffffffffffffffff16148061045e575061045d7f10dac8c06a04bec0b551627dad28bc00d6516b0caacd1c7b345fcdb5211334e43361080e565b5b61049d576040517f08c379a000000000000000000000000000000000000000000000000000000000815260040161049490611919565b60405180910390fd5b600360149054906101000a900460ff166104ec576040517f08c379a00000000000000000000000000000000000000000000000000000000081526004016104e390611985565b60405180910390fd5b600454821115610531576040517f08c379a0000000000000000000000000000000000000000000000000000000008152600401610528906119f1565b60405180910390fd5b600360009054906101000a900473ffffffffffffffffffffffffffffffffffffffff1673ffffffffffffffffffffffffffffffffffffffff1663a9059cbb82846040518363ffffffff1660e01b815260040161058e929190611a11565b6020604051808303816000875af11580156105ad573d6000803e3d6000fd5b505050506040513d601f19601f820116820180604052508101906105d19190611a4f565b505050565b60007f5a05180f000000000000000000000000000000000000000000000000000000007bffffffffffffffffffffffffffffffffffffffffffffffffffffffff1916827bffffffffffffffffffffffffffffffffffffffffffffffffffffffff19161480610649575061064882610aaa565b5b9050919050565b610658610b24565b80600360006101000a81548173ffffffffffffffffffffffffffffffffffffffff021916908373ffffffffffffffffffffffffffffffffffffffff16021790555050565b600060016000838152602001908152602001600020600101549050919050565b6106c58261069c565b6106ce81610bab565b6106d88383610bbf565b50505050565b6106e6610c05565b73ffffffffffffffffffffffffffffffffffffffff168173ffffffffffffffffffffffffffffffffffffffff161461074a576040517f6697b23200000000000000000000000000000000000000000000000000000000815260040160405180910390fd5b6107548282610c0d565b505050565b610761610b24565b80600360146101000a81548160ff02191690831515021790555050565b610786610b24565b6107906000610c53565b565b7f10dac8c06a04bec0b551627dad28bc00d6516b0caacd1c7b345fcdb5211334e481565b60008060009054906101000a900473ffffffffffffffffffffffffffffffffffffffff16905090565b60006108068260026000868152602001908152602001600020610d1790919063ffffffff16565b905092915050565b60006001600084815260200190815260200160002060000160008373ffffffffffffffffffffffffffffffffffffffff1673ffffffffffffffffffffffffffffffffffffffff16815260200190815260200160002060009054906101000a900460ff16905092915050565b6000801b81565b606061089d60026000848152602001908152602001600020610d31565b9050919050565b600360149054906101000a900460ff1681565b80600360009054906101000a900473ffffffffffffffffffffffffffffffffffffffff1673ffffffffffffffffffffffffffffffffffffffff166370a08231336040518263ffffffff1660e01b815260040161091391906116fd565b602060405180830381865afa158015610930573d6000803e3d6000fd5b505050506040513d601f19601f820116820180604052508101906109549190611a91565b1015610995576040517f08c379a000000000000000000000000000000000000000000000000000000000815260040161098c90611b0a565b60405180910390fd5b6109c3600360009054906101000a900473ffffffffffffffffffffffffffffffffffffffff16333084610d52565b50565b60006109e360026000848152602001908152602001600020610dd4565b9050919050565b6109f38261069c565b6109fc81610bab565b610a068383610c0d565b50505050565b610a14610b24565b8060048190555050565b610a26610b24565b600073ffffffffffffffffffffffffffffffffffffffff168173ffffffffffffffffffffffffffffffffffffffff1603610a985760006040517f1e4fbdf7000000000000000000000000000000000000000000000000000000008152600401610a8f91906116fd565b60405180910390fd5b610aa181610c53565b50565b60045481565b60007f7965db0b000000000000000000000000000000000000000000000000000000007bffffffffffffffffffffffffffffffffffffffffffffffffffffffff1916827bffffffffffffffffffffffffffffffffffffffffffffffffffffffff19161480610b1d5750610b1c82610de9565b5b9050919050565b610b2c610c05565b73ffffffffffffffffffffffffffffffffffffffff16610b4a6107b6565b73ffffffffffffffffffffffffffffffffffffffff1614610ba957610b6d610c05565b6040517f118cdaa7000000000000000000000000000000000000000000000000000000008152600401610ba091906116fd565b60405180910390fd5b565b610bbc81610bb7610c05565b610e53565b50565b600080610bcc8484610ea4565b90508015610bfb57610bf98360026000878152602001908152602001600020610f9590919063ffffffff16565b505b8091505092915050565b600033905090565b600080610c1a8484610fc5565b90508015610c4957610c4783600260008781526020019081526020016000206110b890919063ffffffff16565b505b8091505092915050565b60008060009054906101000a900473ffffffffffffffffffffffffffffffffffffffff169050816000806101000a81548173ffffffffffffffffffffffffffffffffffffffff021916908373ffffffffffffffffffffffffffffffffffffffff1602179055508173ffffffffffffffffffffffffffffffffffffffff168173ffffffffffffffffffffffffffffffffffffffff167f8be0079c531659141344cd1fd0a4f28419497f9722a3daafe3b4186f6b6457e060405160405180910390a35050565b6000610d2683600001836110e8565b60001c905092915050565b60606000610d4183600001611113565b905060608190508092505050919050565b610dce848573ffffffffffffffffffffffffffffffffffffffff166323b872dd868686604051602401610d8793929190611b2a565b604051602081830303815290604052915060e01b6020820180517bffffffffffffffffffffffffffffffffffffffffffffffffffffffff838183161783525050505061116f565b50505050565b6000610de282600001611211565b9050919050565b60007f01ffc9a7000000000000000000000000000000000000000000000000000000007bffffffffffffffffffffffffffffffffffffffffffffffffffffffff1916827bffffffffffffffffffffffffffffffffffffffffffffffffffffffff1916149050919050565b610e5d828261080e565b610ea05780826040517fe2517d3f000000000000000000000000000000000000000000000000000000008152600401610e97929190611b61565b60405180910390fd5b5050565b6000610eb0838361080e565b610f8a57600180600085815260200190815260200160002060000160008473ffffffffffffffffffffffffffffffffffffffff1673ffffffffffffffffffffffffffffffffffffffff16815260200190815260200160002060006101000a81548160ff021916908315150217905550610f27610c05565b73ffffffffffffffffffffffffffffffffffffffff168273ffffffffffffffffffffffffffffffffffffffff16847f2f8788117e7eff1d82e926ec794901d17c78024a50270940304540a733656f0d60405160405180910390a460019050610f8f565b600090505b92915050565b6000610fbd836000018373ffffffffffffffffffffffffffffffffffffffff1660001b611222565b905092915050565b6000610fd1838361080e565b156110ad5760006001600085815260200190815260200160002060000160008473ffffffffffffffffffffffffffffffffffffffff1673ffffffffffffffffffffffffffffffffffffffff16815260200190815260200160002060006101000a81548160ff02191690831515021790555061104a610c05565b73ffffffffffffffffffffffffffffffffffffffff168273ffffffffffffffffffffffffffffffffffffffff16847ff6391f5c32d9c69d2a47ea670b442974b53935d1edc7fd64eb21e047a839171b60405160405180910390a4600190506110b2565b600090505b92915050565b60006110e0836000018373ffffffffffffffffffffffffffffffffffffffff1660001b611292565b905092915050565b6000826000018281548110611100576110ff611b8a565b5b9060005260206000200154905092915050565b60608160000180548060200260200160405190810160405280929190818152602001828054801561116357602002820191906000526020600020905b81548152602001906001019080831161114f575b50505050509050919050565b600080602060008451602086016000885af180611192576040513d6000823e3d81fd5b3d9250600051915050600082146111ad5760018114156111c9565b60008473ffffffffffffffffffffffffffffffffffffffff163b145b1561120b57836040517f5274afe700000000000000000000000000000000000000000000000000000000815260040161120291906116fd565b60405180910390fd5b50505050565b600081600001805490509050919050565b600061122e83836113a6565b61128757826000018290806001815401808255809150506001900390600052602060002001600090919091909150558260000180549050836001016000848152602001908152602001600020819055506001905061128c565b600090505b92915050565b6000808360010160008481526020019081526020016000205490506000811461139a5760006001826112c49190611be8565b90506000600186600001805490506112dc9190611be8565b905080821461134b5760008660000182815481106112fd576112fc611b8a565b5b906000526020600020015490508087600001848154811061132157611320611b8a565b5b90600052602060002001819055508387600101600083815260200190815260200160002081905550505b8560000180548061135f5761135e611c1c565b5b6001900381819060005260206000200160009055905585600101600086815260200190815260200160002060009055600193505050506113a0565b60009150505b92915050565b600080836001016000848152602001908152602001600020541415905092915050565b600080fd5b6000819050919050565b6113e1816113ce565b81146113ec57600080fd5b50565b6000813590506113fe816113d8565b92915050565b600073ffffffffffffffffffffffffffffffffffffffff82169050919050565b600061142f82611404565b9050919050565b61143f81611424565b811461144a57600080fd5b50565b60008135905061145c81611436565b92915050565b60008060408385031215611479576114786113c9565b5b6000611487858286016113ef565b92505060206114988582860161144d565b9150509250929050565b60007fffffffff0000000000000000000000000000000000000000000000000000000082169050919050565b6114d7816114a2565b81146114e257600080fd5b50565b6000813590506114f4816114ce565b92915050565b6000602082840312156115105761150f6113c9565b5b600061151e848285016114e5565b91505092915050565b60008115159050919050565b61153c81611527565b82525050565b60006020820190506115576000830184611533565b92915050565b600061156882611424565b9050919050565b6115788161155d565b811461158357600080fd5b50565b6000813590506115958161156f565b92915050565b6000602082840312156115b1576115b06113c9565b5b60006115bf84828501611586565b91505092915050565b6000819050919050565b6115db816115c8565b81146115e657600080fd5b50565b6000813590506115f8816115d2565b92915050565b600060208284031215611614576116136113c9565b5b6000611622848285016115e9565b91505092915050565b611634816115c8565b82525050565b600060208201905061164f600083018461162b565b92915050565b6000806040838503121561166c5761166b6113c9565b5b600061167a858286016115e9565b925050602061168b8582860161144d565b9150509250929050565b61169e81611527565b81146116a957600080fd5b50565b6000813590506116bb81611695565b92915050565b6000602082840312156116d7576116d66113c9565b5b60006116e5848285016116ac565b91505092915050565b6116f781611424565b82525050565b600060208201905061171260008301846116ee565b92915050565b6000806040838503121561172f5761172e6113c9565b5b600061173d858286016115e9565b925050602061174e858286016113ef565b9150509250929050565b600081519050919050565b600082825260208201905092915050565b6000819050602082019050919050565b61178d81611424565b82525050565b600061179f8383611784565b60208301905092915050565b6000602082019050919050565b60006117c382611758565b6117cd8185611763565b93506117d883611774565b8060005b838110156118095781516117f08882611793565b97506117fb836117ab565b9250506001810190506117dc565b5085935050505092915050565b6000602082019050818103600083015261183081846117b8565b905092915050565b60006020828403121561184e5761184d6113c9565b5b600061185c848285016113ef565b91505092915050565b61186e816113ce565b82525050565b60006020820190506118896000830184611865565b92915050565b6000602082840312156118a5576118a46113c9565b5b60006118b38482850161144d565b91505092915050565b600082825260208201905092915050565b7f43616c6c6572206973206e6f7420612077697468647261776572000000000000600082015250565b6000611903601a836118bc565b915061190e826118cd565b602082019050919050565b60006020820190508181036000830152611932816118f6565b9050919050565b7f5769746864726177206973206e6f7420617661696c61626c6500000000000000600082015250565b600061196f6019836118bc565b915061197a82611939565b602082019050919050565b6000602082019050818103600083015261199e81611962565b9050919050565b7f457863656564206d6178696d756d20616d6f756e740000000000000000000000600082015250565b60006119db6015836118bc565b91506119e6826119a5565b602082019050919050565b60006020820190508181036000830152611a0a816119ce565b9050919050565b6000604082019050611a2660008301856116ee565b611a336020830184611865565b9392505050565b600081519050611a4981611695565b92915050565b600060208284031215611a6557611a646113c9565b5b6000611a7384828501611a3a565b91505092915050565b600081519050611a8b816113d8565b92915050565b600060208284031215611aa757611aa66113c9565b5b6000611ab584828501611a7c565b91505092915050565b7f496e73756666696369656e74206163636f756e742062616c616e636500000000600082015250565b6000611af4601c836118bc565b9150611aff82611abe565b602082019050919050565b60006020820190508181036000830152611b2381611ae7565b9050919050565b6000606082019050611b3f60008301866116ee565b611b4c60208301856116ee565b611b596040830184611865565b949350505050565b6000604082019050611b7660008301856116ee565b611b83602083018461162b565b9392505050565b7f4e487b7100000000000000000000000000000000000000000000000000000000600052603260045260246000fd5b7f4e487b7100000000000000000000000000000000000000000000000000000000600052601160045260246000fd5b6000611bf3826113ce565b9150611bfe836113ce565b9250828203905081811115611c1657611c15611bb9565b5b92915050565b7f4e487b7100000000000000000000000000000000000000000000000000000000600052603160045260246000fdfea2646970667358221220c5e59931f9428287e7afc73ea12f7378fe6b51a765a1ab61adff6036d17cfc9d64736f6c634300081c0033",
  "linkReferences": {},
  "deployedLinkReferences": {}
}